{
  "_format": "hh-sol-artifact-1",
  "contractName": "Voting",
  "sourceName": "contracts/YourContract.sol",
  "abi": [
    {
      "anonymous": false,
      "inputs": [
        {
          "indexed": false,
          "internalType": "uint256",
          "name": "id",
          "type": "uint256"
        },
        {
          "indexed": false,
          "internalType": "string",
          "name": "name",
          "type": "string"
        }
      ],
      "name": "CandidateAdded",
      "type": "event"
    },
    {
      "anonymous": false,
      "inputs": [
        {
          "indexed": false,
          "internalType": "uint256",
          "name": "candidateId",
          "type": "uint256"
        }
      ],
      "name": "Voted",
      "type": "event"
    },
    {
      "inputs": [
        {
          "internalType": "string",
          "name": "name",
          "type": "string"
        }
      ],
      "name": "addCandidate",
      "outputs": [],
      "stateMutability": "nonpayable",
      "type": "function"
    },
    {
      "inputs": [],
      "name": "candidateCount",
      "outputs": [
        {
          "internalType": "uint256",
          "name": "",
          "type": "uint256"
        }
      ],
      "stateMutability": "view",
      "type": "function"
    },
    {
      "inputs": [
        {
          "internalType": "uint256",
          "name": "",
          "type": "uint256"
        }
      ],
      "name": "candidates",
      "outputs": [
        {
          "internalType": "uint256",
          "name": "id",
          "type": "uint256"
        },
        {
          "internalType": "string",
          "name": "name",
          "type": "string"
        },
        {
          "internalType": "uint256",
          "name": "voteCount",
          "type": "uint256"
        }
      ],
      "stateMutability": "view",
      "type": "function"
    },
    {
      "inputs": [],
      "name": "getCandidates",
      "outputs": [
        {
          "internalType": "uint256[]",
          "name": "ids",
          "type": "uint256[]"
        },
        {
          "internalType": "string[]",
          "name": "names",
          "type": "string[]"
        },
        {
          "internalType": "uint256[]",
          "name": "voteCounts",
          "type": "uint256[]"
        }
      ],
      "stateMutability": "view",
      "type": "function"
    },
    {
      "inputs": [
        {
          "internalType": "uint256",
          "name": "candidateId",
          "type": "uint256"
        }
      ],
      "name": "getVoteCount",
      "outputs": [
        {
          "internalType": "uint256",
          "name": "",
          "type": "uint256"
        }
      ],
      "stateMutability": "view",
      "type": "function"
    },
    {
      "inputs": [
        {
          "internalType": "address",
          "name": "",
          "type": "address"
        }
      ],
      "name": "hasVoted",
      "outputs": [
        {
          "internalType": "bool",
          "name": "",
          "type": "bool"
        }
      ],
      "stateMutability": "view",
      "type": "function"
    },
    {
      "inputs": [
        {
          "internalType": "uint256",
          "name": "candidateId",
          "type": "uint256"
        }
      ],
      "name": "vote",
      "outputs": [],
      "stateMutability": "nonpayable",
      "type": "function"
    }
  ],
  "bytecode": "0x608060405234801561001057600080fd5b50610b5a806100206000396000f3fe608060405234801561001057600080fd5b506004361061007d5760003560e01c80633477ee2e1161005b5780633477ee2e146100ea578063462e91ec1461010c578063a9a981a31461011f578063b2c2f2e81461013657600080fd5b80630121b93f1461008257806306a49fce1461009757806309eef43e146100b7575b600080fd5b61009561009036600461071d565b610149565b005b61009f610290565b6040516100ae939291906107b7565b60405180910390f35b6100da6100c536600461083c565b60016020526000908152604090205460ff1681565b60405190151581526020016100ae565b6100fd6100f836600461071d565b6104f9565b6040516100ae9392919061086c565b61009561011a3660046108ab565b6105b7565b61012860025481565b6040519081526020016100ae565b61012861014436600461071d565b610693565b3360009081526001602052604090205460ff16156101ae5760405162461bcd60e51b815260206004820152601760248201527f596f75206861766520616c726561647920766f7465642e00000000000000000060448201526064015b60405180910390fd5b6000811180156101c057506002548111155b6102015760405162461bcd60e51b815260206004820152601260248201527124b73b30b634b21031b0b73234b230ba329760711b60448201526064016101a5565b3360009081526001602081905260408220805460ff1916821790556102269083610972565b815481106102365761023661098b565b600091825260208220600260039092020101805491610254836109a1565b90915550506040518181527f7f511e347bf51eed3be100b3194247d5207f05f3b33de7d31e3e8ee73199a049906020015b60405180910390a150565b60608060606000808054905067ffffffffffffffff8111156102b4576102b4610895565b6040519080825280602002602001820160405280156102dd578160200160208202803683370190505b50600080549192509067ffffffffffffffff8111156102fe576102fe610895565b60405190808252806020026020018201604052801561033157816020015b606081526020019060019003908161031c5790505b50600080549192509067ffffffffffffffff81111561035257610352610895565b60405190808252806020026020018201604052801561037b578160200160208202803683370190505b50905060005b6000548110156104ec576000818154811061039e5761039e61098b565b9060005260206000209060030201600001548482815181106103c2576103c261098b565b602002602001018181525050600081815481106103e1576103e161098b565b906000526020600020906003020160010180546103fd906109ba565b80601f0160208091040260200160405190810160405280929190818152602001828054610429906109ba565b80156104765780601f1061044b57610100808354040283529160200191610476565b820191906000526020600020905b81548152906001019060200180831161045957829003601f168201915b505050505083828151811061048d5761048d61098b565b6020026020010181905250600081815481106104ab576104ab61098b565b9060005260206000209060030201600201548282815181106104cf576104cf61098b565b6020908102919091010152806104e4816109a1565b915050610381565b5091959094509092509050565b6000818154811061050957600080fd5b6000918252602090912060039091020180546001820180549193509061052e906109ba565b80601f016020809104026020016040519081016040528092919081815260200182805461055a906109ba565b80156105a75780601f1061057c576101008083540402835291602001916105a7565b820191906000526020600020905b81548152906001019060200180831161058a57829003601f168201915b5050505050908060020154905083565b600280549060006105c7836109a1565b90915550506040805160608101825260025481526020810183815260009282018390528254600181018455928052815160039093027f290decd9548b62a8d60345a988386fc84ba6bc95484008f6362f93160ef3e563810193845590519192917f290decd9548b62a8d60345a988386fc84ba6bc95484008f6362f93160ef3e564909101906106569082610a43565b506040918201516002918201555490517fe83b2a43e7e82d975c8a0a6d2f045153c869e111136a34d1889ab7b598e396a391610285918490610b03565b600080821180156106a657506002548211155b6106e75760405162461bcd60e51b815260206004820152601260248201527124b73b30b634b21031b0b73234b230ba329760711b60448201526064016101a5565b60006106f4600184610972565b815481106107045761070461098b565b9060005260206000209060030201600201549050919050565b60006020828403121561072f57600080fd5b5035919050565b600081518084526020808501945080840160005b838110156107665781518752958201959082019060010161074a565b509495945050505050565b6000815180845260005b818110156107975760208185018101518683018201520161077b565b506000602082860101526020601f19601f83011685010191505092915050565b6060815260006107ca6060830186610736565b6020838203818501528186518084528284019150828160051b85010183890160005b8381101561081a57601f19878403018552610808838351610771565b948601949250908501906001016107ec565b5050868103604088015261082e8189610736565b9a9950505050505050505050565b60006020828403121561084e57600080fd5b81356001600160a01b038116811461086557600080fd5b9392505050565b8381526060602082015260006108856060830185610771565b9050826040830152949350505050565b634e487b7160e01b600052604160045260246000fd5b6000602082840312156108bd57600080fd5b813567ffffffffffffffff808211156108d557600080fd5b818401915084601f8301126108e957600080fd5b8135818111156108fb576108fb610895565b604051601f8201601f19908116603f0116810190838211818310171561092357610923610895565b8160405282815287602084870101111561093c57600080fd5b826020860160208301376000928101602001929092525095945050505050565b634e487b7160e01b600052601160045260246000fd5b818103818111156109855761098561095c565b92915050565b634e487b7160e01b600052603260045260246000fd5b6000600182016109b3576109b361095c565b5060010190565b600181811c908216806109ce57607f821691505b6020821081036109ee57634e487b7160e01b600052602260045260246000fd5b50919050565b601f821115610a3e57600081815260208120601f850160051c81016020861015610a1b5750805b601f850160051c820191505b81811015610a3a57828155600101610a27565b5050505b505050565b815167ffffffffffffffff811115610a5d57610a5d610895565b610a7181610a6b84546109ba565b846109f4565b602080601f831160018114610aa65760008415610a8e5750858301515b600019600386901b1c1916600185901b178555610a3a565b600085815260208120601f198616915b82811015610ad557888601518255948401946001909101908401610ab6565b5085821015610af35787850151600019600388901b60f8161c191681555b5050505050600190811b01905550565b828152604060208201526000610b1c6040830184610771565b94935050505056fea26469706673582212206dc4df5ccff0c48d31370af20a763c53039e7aa7ffb65d16e7bef37565e1b82364736f6c63430008140033",
  "linkReferences": {},
  "deployedLinkReferences": {}
}